:020000004D2988
:10000800FF00030E8301E8000A08E9008A0170086E
:10001800A1007C08A0000408A2008B13E401660874
:100028003B3CE7006608EA006708EB00E220660848
:100038003B3A031D2128E6012528660AF0007008CE
:10004800E6008B108B172108F0002008FC0022081E
:10005800840069088A00680E8300FF0E7F0E09007D
:10006800831203132230FC00F801F901FA01FB01A5
:10007800FC0303196A280310FB0CFA0CF90CF80CA2
:10008800F30CF20CF10CF00C031C3C28FC030319D4
:100098005C287408F80775080318750FF9077608BF
:1000A8000318760FFA0777080318770FFB0740281D
:1000B8007408F80775080318750FF9077608031808
:0E00C800760FFA0777080318770FFB0708007A
:0C00D600831260088A005F0882000800A6
:1000E200D0308316A0000730A100A201A301D030B6
:1000F200F0000730F1000030F2000030F30083120C
:100102006C08F4006D08F500F601F7013420700860
:100112008316A0007108A1007208A2007308A30050
:1001220000307302031D9F2800307202031D9F28B6
:1001320002307102031D9F28B23070020318A228F8
:10014200E128B230F0000230F100F201F301700850
:10015200A0027108031C710FA1027208031C720F26
:10016200A2027308031C730FA3020530F00070088B
:100172000319C228A30CA20CA10CA00CA313FF3ECE
:10018200B9282008F0002108F1002208F200230813
:10019200F3000130A002031CA102031CA202031CF3
:1001A200A30270087104720473040319E1280000A9
:1001B2000000000000000000000000000000C22853
:0201C200080033
:1001C4008312051005143C30E5008030E51B7F30B8
:1001D400F00080307002031DF1286A086502031CD8
:1001E4004029E1018030E11B7F30F0008030700253
:1001F400031DFE286A0861020318082985160516DE
:100204000512610AF0007008E100F42880306106EC
:10021400F00080306506700203181829851205164F
:100224000512610AF0007008E10008298516051618
:100234000512610AF0007008E10080306106F000E8
:100244008030403A700203182F29851205160512D2
:10025400610AF0007008E1001F29851485106B08FD
:10026400233E84000008EC00ED010030ED00712015
:0E02740083126503F0007008E500E72808001B
:100282006B208A110A128000840ADF0A0319E00A2D
:08029200F003031D41290800DF
:10029A00CE218312E101E501E601E7010730990069
:1002AA0083169F010C3085000B1601138B10013049
:1002BA008312850005100514851485101A30FC0078
:1002CA00F830FD00FD0B6729FC0B672900008B172E
:1002DA00E4016430640203188229E2016430620294
:1002EA0003188029E3016430630203187E29E30AB4
:1002FA007829E20A7329E40A6E290510051485147F
:0E030A008510E101E501E601E7016D298B296F
:10039C00233084003C308312F0009130DF000130B8
:0603AC00E0004121080001
:10032200DC346E345534403433342B3425342034A9
:100332001C34193418341534143412341134103472
:100342000F340E340D340D340C340B340B340B34A7
:100352000A340A340A3409340934083408340834B3
:1003620008340834083407340734063406340634B3
:1003720006340634063405340534053405340534B0
:1003820005340534053405340534053405340534A3
:08039200053405340434043481
:02400E00F40FAD
:00000001FF
