:02000000672D6A
:10000800FF00030E8301AA000A08AB008A017008EA
:10001800A000851811282411122824158B1C2428C7
:100028002708031D2228280AF0007008A8002808BD
:10003800053A031D21280130A80023282414332859
:100048000B1C33282808023A031D3328270AF0001E
:100058007008A7002708053A031D3328A7018B015C
:10006800A4142008F0002B088A002A0E8300FF0E33
:040078007F0E0900EE
:10007C007128033083120313F000B0289F30F00076
:10008C00B0282530F000B0280D30F000B0289930A1
:10009C00F000B0284930F000B0284130F000B02812
:1000AC001F30F000B0280130F000B0280930F0000B
:1000BC00B0281130F000B028E330F000B0286130E7
:1000CC00F000B0289130F000B0286330F000B02878
:1000DC00FD30F000B028831203133408003A0319E2
:1000EC003F283408013A031944283408023A03190A
:1000FC0047283408033A03194A283408043A0319E8
:10010C004D283408053A031950283408063A0319C7
:10011C0053283408073A031956283408083A0319A7
:10012C0059283408093A03195C283408413A031950
:10013C005F2834084C3A031962283408453A0319ED
:10014C0065283408583A031968283408433A0319C7
:06015C006B286E2808006C
:060162000000000008008F
:10016800053084000008000883120313F0007012A1
:0601780070088000080081
:10017E00053084000008000883120313F000F0120B
:06018E007008800008006B
:10019400831603130516B120B1208516B120B120B2
:1001A400B42083160512B120B120BF208316851216
:0201B400080041
:1001B600AD2AEF308312031386000F302105B400F9
:1001C6003E2083120313700887000930FD00FD0BE3
:1001D600EA2800000000FF308700DF308600210893
:1001E600B400B40CB413B40CB413B40CB413B40C00
:1001F600B4133E2083120313700887000930FD00F4
:10020600FD0B032900000000FF308700BF30860089
:10021600FF30B4003E2083120313700887000930B4
:10022600FD00FD0B142900000000FF3087007F3021
:100236008600FF30B4003E20831203137008870047
:100246000930FD00FD0B252900000000FF30870066
:10025600FF308600C02AEF3086002708013A031DCA
:100266003F290F302605B4003E20FE3083120313CB
:10027600F0057008AF0047290F302605B4003E2070
:10028600831203137008AF002F0887000930FD00A2
:10029600FD0B4B2900000000FF308700DF30860091
:1002A6002708023A031D69292608B400B40CB413C2
:1002B600B40CB413B40CB413B40CB4133E20FE3017
:1002C60083120313F0057008AF0078292608B400DE
:1002D600B40CB413B40CB413B40CB413B40CB413FC
:1002E6003E20831203137008AF002F0887000930E1
:1002F600FD00FD0B7C2900000000FF308700BF30A9
:1003060086002708033A031D93290F302905B400F8
:100316003E20FE3083120313F0057008AF009B29C0
:100326000F302905B4003E20831203137008AF0076
:100336002F0887000930FD00FD0B9F2900000000F3
:10034600FF3087007F3086002708043A031DBD2949
:100356002908B400B40CB413B40CB413B40CB4131D
:10036600B40CB4133E20FE3083120313F00570085C
:10037600AF00CC292908B400B40CB413B40CB413E0
:10038600B40CB413B40CB4133E20831203137008D8
:10039600AF002F0887000930FD00FD0BD0290000B3
:1003A6000000FF308700FF308600C02AEF3086004D
:1003B6005830B4003E2083120313700887000930BA
:1003C600FD00FD0BE42900000000FF308700DF3050
:1003D60086004530B4003E20831203137008870060
:1003E6000930FD00FD0BF52900000000FF308700F5
:1003F600BF3086004C30B4003E20831203137008D1
:1004060087000930FD00FD0B062A00000000FF30C2
:1004160087007F3086004130B4003E2083120313EC
:10042600700887000930FD00FD0B172A0000000048
:10043600FF308700FF308600C02AEF308600433049
:10044600B4003E2083120313700887000930FD00B4
:10045600FD0B2B2A00000000FF308700DF308600EE
:10046600B4013E2083120313700887000930FD0093
:10047600FD0B3B2A00000000FF308700BF308600DE
:100486004C30B4003E2083120313700887000930F5
:10049600FD00FD0B4C2A00000000FF3087007F3076
:1004A60086004330B4003E20831203137008870091
:1004B6000930FD00FD0B5D2A00000000FF308700BB
:1004C600FF308600C02AEF308600FF30B4003E20A1
:1004D60083120313700887000930FD00FD0B712A93
:1004E60000000000FF308700DF308600FF30B400D8
:1004F6003E2083120313700887000930FD00FD0BB0
:10050600822A00000000FF308700BF308600FF30DF
:10051600B4003E2083120313700887000930FD00E3
:10052600FD0B932A00000000FF3087007F30860015
:10053600FF30B4003E208312031370088700093091
:10054600FD00FD0BA42A00000000FF308700FF30ED
:100556008600C02A831203132E08013A0319DC28E9
:100566002E08023A03192E292E08033A0319D9290F
:0C0576002E08043A0319202A662A080007
:0E0582008312031323088A0022088200080057
:10059000B42083160512B120B12085168312A41150
:1005A000851AD62AA41DD52AD62AD02AB120B12050
:1005B000B120B120B120B120B120B12083160516A1
:0605C000B120B12008008B
:1005C60083120313B001B1018030B2000030B300D2
:1005D6003208330403190E2BB120B12083160516F9
:1005E600B120B12085168312A411851AFE2AA41DF6
:1005F600FD2AFE2AF82A051E042B3208B004330809
:10060600B104B120B120BF20831685128312B30C2A
:10061600B20CB313EB2A83160516B120B120831250
:100626002E082F0403191A2BB420831605128316DD
:10063600B120B12085168312A411851A262BA41D7C
:10064600252B262B202BB120B120BF208316851207
:10065600B120B120B4208316051283123008F000B1
:0206660008008A
:10066800013083120313B1000030B2008030AF00B4
:10067800B0012F08300403196A2BB120B120B12032
:10068800B120BF2083168512B120B12083122F0814
:100698002E05F00000303005F100700871040319D0
:1006A800582B831605165B2BB42083160512B12030
:1006B800B12085168312A411851A662BA41D652BFB
:1006C800662B602BB00CAF0CB0133D2BB101B201FF
:1006D800B120B120BF2083168512B120B1200516A4
:1006E800B120B120B120B12085168312A411851A3A
:1006F800812BA41D802B812B7B2BB101B201B12052
:10070800B120051E882B3114B120B120B120B120B1
:10071800B120B120B120B120B120B120B120B12049
:10072800B120B120B120B120BF2083168512B4209A
:0C0738008316051283123108F00008003F
:10074400C1228A110A128000840AA20A0319A30A88
:08075400F003031DA22B0800B5
:10075C00831203132C08023A031DB62CA42CCA20B6
:10076C00D0308312AE0034230130AE0034230F306E
:10077C002605F100093071020318CA2B260AF00075
:10078C007008F100F201D02BF0302605F000700853
:10079C00F100F2017108AE003423C822B62CCA2035
:1007AC00D0308312AE0034230130AE00342326083F
:1007BC00F100F10CF113F10CF113F10CF113F10C3C
:1007CC00F113053071020318F22B10302607F000DC
:1007DC007008F100F201F82B0F302605F0007008BC
:1007EC00F100F2017108AE003423C822B62CCA20E5
:1007FC00D0308312AE0034230230AE0034230F30DD
:10080C002905F100033071020318172C2908013E49
:10081C00F000F1010318F10A7008F5007108F600F8
:10082C00472C2908F100F10CF113F10CF113F10C28
:10083C00F113F10CF1137108023A031D2C2CF0305A
:10084C002905F0007008F300F401432C0F30290542
:10085C00F100093071020318392C290AF0007008D4
:10086C00F100F2013F2CF0302905F0007008F10086
:10087C00F2017108F3007208F4007308F5007408B3
:10088C00F6007508AE003423C822B62CCA20D0302E
:10089C008312AE0034230230AE0034232908F10059
:1008AC00F10CF113F10CF113F10CF113F10CF11338
:1008BC000130710203186D2C10302907F000F10182
:1008CC000318F10A7008F5007108F6009E2C0F3021
:1008DC002905F1007108033C03187B2C0F30290506
:1008EC00F0007008F300F4019A2C2908F100F10CC7
:1008FC00F113F10CF113F10CF113F10CF1130230B3
:10090C0071020318902C10302907F0007008F100C8
:10091C00F201962C0F302905F0007008F100F2015D
:10092C007108F3007208F4007308F5007408F600FF
:10093C007508AE003423C822B62CB62C83122D08B1
:10094C00013A0319B52B2D08023A0319D52B2D08A2
:10095C00033A0319FD2B2D08043A03194C2CA32C34
:02096C00080081
:10096E004E2D831203132C08AE00DB20CA20D0308C
:10097E008312AE0034232C08AE00DB20AE013423EC
:10098E002C08AE00DB20CA20D1308312AE003423F7
:10099E002C08AE00DB20AE01AF01E3227008A100EF
:1009AE002C08AE00DB20C82283122C08AE00DB2000
:1009BE00592D2C08AE00DB20CA20D0308312AE0099
:1009CE0034232C08AE00DB200130AE0034232C087B
:1009DE00AE00DB20CA20D1308312AE0034232C08A7
:1009EE00AE00DB200130AE000030AF00E322700815
:1009FE00A600AE01AF01E3227008A9002C08AE00DC
:100A0E00DB20C82283122C08AE00DB20592D2C08C7
:100A1E00AE00DB200230FC000830FD00FD0B152D72
:100A2E00FC0B152D00002C08AE00DB200230FC0064
:100A3E000830FD00FD0B212DFC0B212D00002C0894
:100A4E00AE00DB200230FC000830FD00FD0B2D2D2A
:100A5E00FC0B2D2D00002C08AE00DB200230FC001C
:100A6E000830FD00FD0B392DFC0B392D00002C0834
:100A7E00AE00DB200230FC000830FD00FD0B452DE2
:100A8E00FC0B452D00002C08AE00DB20592D8312E7
:100A9E0003132C08013A0319B82C2C08023A031937
:060AAE00E02C0E2D0800F3
:100AB40083160313851605168312A411851A662D51
:0A0AC400A41D652D662D602D0800AD
:100ACE0006308316031385008601870183120317F0
:100ADE009E019F01831603139501023096005A253D
:100AEE00CA20D0308312AE0034230730AE00342338
:100AFE008030AE003423C822CA20D0308312AE001C
:100B0E003423AE013423AE013423C822CA20D030A0
:100B1E008312AE0034230730AE0034231030AE0003
:100B2E003423C82201308312A800A701A501A41006
:100B3E0024108701FF30860098308B002808AC0007
:100B4E00B724241CB22D2808AC002708AD00AE2314
:100B5E00831203132410A41CBD2DA50A2508803A68
:100B6E00031DBD2DA501A41098308B00A52DBE2D03
:02400E00F40FAD
:00000001FF
